{
  "_format": "hh-sol-artifact-1",
  "contractName": "GoverenceToken",
  "sourceName": "contracts/GovernanceToken.sol",
  "abi": [
    {
      "inputs": [
        {
          "internalType": "address",
          "name": "initialOwner",
          "type": "address"
        }
      ],
      "stateMutability": "nonpayable",
      "type": "constructor"
    },
    {
      "inputs": [],
      "name": "CheckpointUnorderedInsertion",
      "type": "error"
    },
    {
      "inputs": [],
      "name": "ECDSAInvalidSignature",
      "type": "error"
    },
    {
      "inputs": [
        {
          "internalType": "uint256",
          "name": "length",
          "type": "uint256"
        }
      ],
      "name": "ECDSAInvalidSignatureLength",
      "type": "error"
    },
    {
      "inputs": [
        {
          "internalType": "bytes32",
          "name": "s",
          "type": "bytes32"
        }
      ],
      "name": "ECDSAInvalidSignatureS",
      "type": "error"
    },
    {
      "inputs": [
        {
          "internalType": "uint256",
          "name": "increasedSupply",
          "type": "uint256"
        },
        {
          "internalType": "uint256",
          "name": "cap",
          "type": "uint256"
        }
      ],
      "name": "ERC20ExceededSafeSupply",
      "type": "error"
    },
    {
      "inputs": [
        {
          "internalType": "address",
          "name": "spender",
          "type": "address"
        },
        {
          "internalType": "uint256",
          "name": "allowance",
          "type": "uint256"
        },
        {
          "internalType": "uint256",
          "name": "needed",
          "type": "uint256"
        }
      ],
      "name": "ERC20InsufficientAllowance",
      "type": "error"
    },
    {
      "inputs": [
        {
          "internalType": "address",
          "name": "sender",
          "type": "address"
        },
        {
          "internalType": "uint256",
          "name": "balance",
          "type": "uint256"
        },
        {
          "internalType": "uint256",
          "name": "needed",
          "type": "uint256"
        }
      ],
      "name": "ERC20InsufficientBalance",
      "type": "error"
    },
    {
      "inputs": [
        {
          "internalType": "address",
          "name": "approver",
          "type": "address"
        }
      ],
      "name": "ERC20InvalidApprover",
      "type": "error"
    },
    {
      "inputs": [
        {
          "internalType": "address",
          "name": "receiver",
          "type": "address"
        }
      ],
      "name": "ERC20InvalidReceiver",
      "type": "error"
    },
    {
      "inputs": [
        {
          "internalType": "address",
          "name": "sender",
          "type": "address"
        }
      ],
      "name": "ERC20InvalidSender",
      "type": "error"
    },
    {
      "inputs": [
        {
          "internalType": "address",
          "name": "spender",
          "type": "address"
        }
      ],
      "name": "ERC20InvalidSpender",
      "type": "error"
    },
    {
      "inputs": [
        {
          "internalType": "uint256",
          "name": "deadline",
          "type": "uint256"
        }
      ],
      "name": "ERC2612ExpiredSignature",
      "type": "error"
    },
    {
      "inputs": [
        {
          "internalType": "address",
          "name": "signer",
          "type": "address"
        },
        {
          "internalType": "address",
          "name": "owner",
          "type": "address"
        }
      ],
      "name": "ERC2612InvalidSigner",
      "type": "error"
    },
    {
      "inputs": [
        {
          "internalType": "uint256",
          "name": "timepoint",
          "type": "uint256"
        },
        {
          "internalType": "uint48",
          "name": "clock",
          "type": "uint48"
        }
      ],
      "name": "ERC5805FutureLookup",
      "type": "error"
    },
    {
      "inputs": [],
      "name": "ERC6372InconsistentClock",
      "type": "error"
    },
    {
      "inputs": [
        {
          "internalType": "address",
          "name": "account",
          "type": "address"
        },
        {
          "internalType": "uint256",
          "name": "currentNonce",
          "type": "uint256"
        }
      ],
      "name": "InvalidAccountNonce",
      "type": "error"
    },
    {
      "inputs": [],
      "name": "InvalidShortString",
      "type": "error"
    },
    {
      "inputs": [
        {
          "internalType": "address",
          "name": "owner",
          "type": "address"
        }
      ],
      "name": "OwnableInvalidOwner",
      "type": "error"
    },
    {
      "inputs": [
        {
          "internalType": "address",
          "name": "account",
          "type": "address"
        }
      ],
      "name": "OwnableUnauthorizedAccount",
      "type": "error"
    },
    {
      "inputs": [
        {
          "internalType": "uint8",
          "name": "bits",
          "type": "uint8"
        },
        {
          "internalType": "uint256",
          "name": "value",
          "type": "uint256"
        }
      ],
      "name": "SafeCastOverflowedUintDowncast",
      "type": "error"
    },
    {
      "inputs": [
        {
          "internalType": "string",
          "name": "str",
          "type": "string"
        }
      ],
      "name": "StringTooLong",
      "type": "error"
    },
    {
      "inputs": [
        {
          "internalType": "uint256",
          "name": "expiry",
          "type": "uint256"
        }
      ],
      "name": "VotesExpiredSignature",
      "type": "error"
    },
    {
      "anonymous": false,
      "inputs": [
        {
          "indexed": true,
          "internalType": "address",
          "name": "owner",
          "type": "address"
        },
        {
          "indexed": true,
          "internalType": "address",
          "name": "spender",
          "type": "address"
        },
        {
          "indexed": false,
          "internalType": "uint256",
          "name": "value",
          "type": "uint256"
        }
      ],
      "name": "Approval",
      "type": "event"
    },
    {
      "anonymous": false,
      "inputs": [
        {
          "indexed": true,
          "internalType": "address",
          "name": "delegator",
          "type": "address"
        },
        {
          "indexed": true,
          "internalType": "address",
          "name": "fromDelegate",
          "type": "address"
        },
        {
          "indexed": true,
          "internalType": "address",
          "name": "toDelegate",
          "type": "address"
        }
      ],
      "name": "DelegateChanged",
      "type": "event"
    },
    {
      "anonymous": false,
      "inputs": [
        {
          "indexed": true,
          "internalType": "address",
          "name": "delegate",
          "type": "address"
        },
        {
          "indexed": false,
          "internalType": "uint256",
          "name": "previousVotes",
          "type": "uint256"
        },
        {
          "indexed": false,
          "internalType": "uint256",
          "name": "newVotes",
          "type": "uint256"
        }
      ],
      "name": "DelegateVotesChanged",
      "type": "event"
    },
    {
      "anonymous": false,
      "inputs": [],
      "name": "EIP712DomainChanged",
      "type": "event"
    },
    {
      "anonymous": false,
      "inputs": [
        {
          "indexed": true,
          "internalType": "address",
          "name": "previousOwner",
          "type": "address"
        },
        {
          "indexed": true,
          "internalType": "address",
          "name": "newOwner",
          "type": "address"
        }
      ],
      "name": "OwnershipTransferred",
      "type": "event"
    },
    {
      "anonymous": false,
      "inputs": [
        {
          "indexed": true,
          "internalType": "address",
          "name": "from",
          "type": "address"
        },
        {
          "indexed": true,
          "internalType": "address",
          "name": "to",
          "type": "address"
        },
        {
          "indexed": false,
          "internalType": "uint256",
          "name": "value",
          "type": "uint256"
        }
      ],
      "name": "Transfer",
      "type": "event"
    },
    {
      "inputs": [],
      "name": "CLOCK_MODE",
      "outputs": [
        {
          "internalType": "string",
          "name": "",
          "type": "string"
        }
      ],
      "stateMutability": "pure",
      "type": "function"
    },
    {
      "inputs": [],
      "name": "DOMAIN_SEPARATOR",
      "outputs": [
        {
          "internalType": "bytes32",
          "name": "",
          "type": "bytes32"
        }
      ],
      "stateMutability": "view",
      "type": "function"
    },
    {
      "inputs": [
        {
          "internalType": "address",
          "name": "owner",
          "type": "address"
        },
        {
          "internalType": "address",
          "name": "spender",
          "type": "address"
        }
      ],
      "name": "allowance",
      "outputs": [
        {
          "internalType": "uint256",
          "name": "",
          "type": "uint256"
        }
      ],
      "stateMutability": "view",
      "type": "function"
    },
    {
      "inputs": [
        {
          "internalType": "address",
          "name": "spender",
          "type": "address"
        },
        {
          "internalType": "uint256",
          "name": "value",
          "type": "uint256"
        }
      ],
      "name": "approve",
      "outputs": [
        {
          "internalType": "bool",
          "name": "",
          "type": "bool"
        }
      ],
      "stateMutability": "nonpayable",
      "type": "function"
    },
    {
      "inputs": [
        {
          "internalType": "address",
          "name": "account",
          "type": "address"
        }
      ],
      "name": "balanceOf",
      "outputs": [
        {
          "internalType": "uint256",
          "name": "",
          "type": "uint256"
        }
      ],
      "stateMutability": "view",
      "type": "function"
    },
    {
      "inputs": [
        {
          "internalType": "uint256",
          "name": "value",
          "type": "uint256"
        }
      ],
      "name": "burn",
      "outputs": [],
      "stateMutability": "nonpayable",
      "type": "function"
    },
    {
      "inputs": [
        {
          "internalType": "address",
          "name": "account",
          "type": "address"
        },
        {
          "internalType": "uint256",
          "name": "value",
          "type": "uint256"
        }
      ],
      "name": "burnFrom",
      "outputs": [],
      "stateMutability": "nonpayable",
      "type": "function"
    },
    {
      "inputs": [
        {
          "internalType": "address",
          "name": "account",
          "type": "address"
        },
        {
          "internalType": "uint32",
          "name": "pos",
          "type": "uint32"
        }
      ],
      "name": "checkpoints",
      "outputs": [
        {
          "components": [
            {
              "internalType": "uint48",
              "name": "_key",
              "type": "uint48"
            },
            {
              "internalType": "uint208",
              "name": "_value",
              "type": "uint208"
            }
          ],
          "internalType": "struct Checkpoints.Checkpoint208",
          "name": "",
          "type": "tuple"
        }
      ],
      "stateMutability": "view",
      "type": "function"
    },
    {
      "inputs": [],
      "name": "clock",
      "outputs": [
        {
          "internalType": "uint48",
          "name": "",
          "type": "uint48"
        }
      ],
      "stateMutability": "view",
      "type": "function"
    },
    {
      "inputs": [],
      "name": "decimals",
      "outputs": [
        {
          "internalType": "uint8",
          "name": "",
          "type": "uint8"
        }
      ],
      "stateMutability": "view",
      "type": "function"
    },
    {
      "inputs": [
        {
          "internalType": "address",
          "name": "delegatee",
          "type": "address"
        }
      ],
      "name": "delegate",
      "outputs": [],
      "stateMutability": "nonpayable",
      "type": "function"
    },
    {
      "inputs": [
        {
          "internalType": "address",
          "name": "delegatee",
          "type": "address"
        },
        {
          "internalType": "uint256",
          "name": "nonce",
          "type": "uint256"
        },
        {
          "internalType": "uint256",
          "name": "expiry",
          "type": "uint256"
        },
        {
          "internalType": "uint8",
          "name": "v",
          "type": "uint8"
        },
        {
          "internalType": "bytes32",
          "name": "r",
          "type": "bytes32"
        },
        {
          "internalType": "bytes32",
          "name": "s",
          "type": "bytes32"
        }
      ],
      "name": "delegateBySig",
      "outputs": [],
      "stateMutability": "nonpayable",
      "type": "function"
    },
    {
      "inputs": [
        {
          "internalType": "address",
          "name": "account",
          "type": "address"
        }
      ],
      "name": "delegates",
      "outputs": [
        {
          "internalType": "address",
          "name": "",
          "type": "address"
        }
      ],
      "stateMutability": "view",
      "type": "function"
    },
    {
      "inputs": [],
      "name": "eip712Domain",
      "outputs": [
        {
          "internalType": "bytes1",
          "name": "fields",
          "type": "bytes1"
        },
        {
          "internalType": "string",
          "name": "name",
          "type": "string"
        },
        {
          "internalType": "string",
          "name": "version",
          "type": "string"
        },
        {
          "internalType": "uint256",
          "name": "chainId",
          "type": "uint256"
        },
        {
          "internalType": "address",
          "name": "verifyingContract",
          "type": "address"
        },
        {
          "internalType": "bytes32",
          "name": "salt",
          "type": "bytes32"
        },
        {
          "internalType": "uint256[]",
          "name": "extensions",
          "type": "uint256[]"
        }
      ],
      "stateMutability": "view",
      "type": "function"
    },
    {
      "inputs": [
        {
          "internalType": "uint256",
          "name": "timepoint",
          "type": "uint256"
        }
      ],
      "name": "getPastTotalSupply",
      "outputs": [
        {
          "internalType": "uint256",
          "name": "",
          "type": "uint256"
        }
      ],
      "stateMutability": "view",
      "type": "function"
    },
    {
      "inputs": [
        {
          "internalType": "address",
          "name": "account",
          "type": "address"
        },
        {
          "internalType": "uint256",
          "name": "timepoint",
          "type": "uint256"
        }
      ],
      "name": "getPastVotes",
      "outputs": [
        {
          "internalType": "uint256",
          "name": "",
          "type": "uint256"
        }
      ],
      "stateMutability": "view",
      "type": "function"
    },
    {
      "inputs": [
        {
          "internalType": "address",
          "name": "account",
          "type": "address"
        }
      ],
      "name": "getVotes",
      "outputs": [
        {
          "internalType": "uint256",
          "name": "",
          "type": "uint256"
        }
      ],
      "stateMutability": "view",
      "type": "function"
    },
    {
      "inputs": [
        {
          "internalType": "address",
          "name": "to",
          "type": "address"
        },
        {
          "internalType": "uint256",
          "name": "amount",
          "type": "uint256"
        }
      ],
      "name": "mint",
      "outputs": [],
      "stateMutability": "nonpayable",
      "type": "function"
    },
    {
      "inputs": [],
      "name": "name",
      "outputs": [
        {
          "internalType": "string",
          "name": "",
          "type": "string"
        }
      ],
      "stateMutability": "view",
      "type": "function"
    },
    {
      "inputs": [
        {
          "internalType": "address",
          "name": "owner",
          "type": "address"
        }
      ],
      "name": "nonces",
      "outputs": [
        {
          "internalType": "uint256",
          "name": "",
          "type": "uint256"
        }
      ],
      "stateMutability": "view",
      "type": "function"
    },
    {
      "inputs": [
        {
          "internalType": "address",
          "name": "account",
          "type": "address"
        }
      ],
      "name": "numCheckpoints",
      "outputs": [
        {
          "internalType": "uint32",
          "name": "",
          "type": "uint32"
        }
      ],
      "stateMutability": "view",
      "type": "function"
    },
    {
      "inputs": [],
      "name": "owner",
      "outputs": [
        {
          "internalType": "address",
          "name": "",
          "type": "address"
        }
      ],
      "stateMutability": "view",
      "type": "function"
    },
    {
      "inputs": [
        {
          "internalType": "address",
          "name": "owner",
          "type": "address"
        },
        {
          "internalType": "address",
          "name": "spender",
          "type": "address"
        },
        {
          "internalType": "uint256",
          "name": "value",
          "type": "uint256"
        },
        {
          "internalType": "uint256",
          "name": "deadline",
          "type": "uint256"
        },
        {
          "internalType": "uint8",
          "name": "v",
          "type": "uint8"
        },
        {
          "internalType": "bytes32",
          "name": "r",
          "type": "bytes32"
        },
        {
          "internalType": "bytes32",
          "name": "s",
          "type": "bytes32"
        }
      ],
      "name": "permit",
      "outputs": [],
      "stateMutability": "nonpayable",
      "type": "function"
    },
    {
      "inputs": [],
      "name": "renounceOwnership",
      "outputs": [],
      "stateMutability": "nonpayable",
      "type": "function"
    },
    {
      "inputs": [],
      "name": "symbol",
      "outputs": [
        {
          "internalType": "string",
          "name": "",
          "type": "string"
        }
      ],
      "stateMutability": "view",
      "type": "function"
    },
    {
      "inputs": [],
      "name": "totalSupply",
      "outputs": [
        {
          "internalType": "uint256",
          "name": "",
          "type": "uint256"
        }
      ],
      "stateMutability": "view",
      "type": "function"
    },
    {
      "inputs": [
        {
          "internalType": "address",
          "name": "to",
          "type": "address"
        },
        {
          "internalType": "uint256",
          "name": "value",
          "type": "uint256"
        }
      ],
      "name": "transfer",
      "outputs": [
        {
          "internalType": "bool",
          "name": "",
          "type": "bool"
        }
      ],
      "stateMutability": "nonpayable",
      "type": "function"
    },
    {
      "inputs": [
        {
          "internalType": "address",
          "name": "from",
          "type": "address"
        },
        {
          "internalType": "address",
          "name": "to",
          "type": "address"
        },
        {
          "internalType": "uint256",
          "name": "value",
          "type": "uint256"
        }
      ],
      "name": "transferFrom",
      "outputs": [
        {
          "internalType": "bool",
          "name": "",
          "type": "bool"
        }
      ],
      "stateMutability": "nonpayable",
      "type": "function"
    },
    {
      "inputs": [
        {
          "internalType": "address",
          "name": "newOwner",
          "type": "address"
        }
      ],
      "name": "transferOwnership",
      "outputs": [],
      "stateMutability": "nonpayable",
      "type": "function"
    }
  ],
  "bytecode": "0x6101606040523480156200001257600080fd5b506040516200592c3803806200592c833981810160405281019062000038919062001256565b6040518060400160405280600e81526020017f476f766572656e6365546f6b656e000000000000000000000000000000000000815250806040518060400160405280600181526020017f3100000000000000000000000000000000000000000000000000000000000000815250836040518060400160405280600e81526020017f476f766572656e6365546f6b656e0000000000000000000000000000000000008152506040518060400160405280600281526020017f4754000000000000000000000000000000000000000000000000000000000000815250816003908162000123919062001502565b50806004908162000135919062001502565b505050600073ffffffffffffffffffffffffffffffffffffffff168173ffffffffffffffffffffffffffffffffffffffff1603620001ad5760006040517f1e4fbdf7000000000000000000000000000000000000000000000000000000008152600401620001a49190620015fa565b60405180910390fd5b620001be81620002b660201b60201c565b50620001d56006836200037c60201b90919060201c565b6101208181525050620001f36007826200037c60201b90919060201c565b6101408181525050818051906020012060e08181525050808051906020012061010081815250504660a0818152505062000232620003d460201b60201c565b608081815250503073ffffffffffffffffffffffffffffffffffffffff1660c08173ffffffffffffffffffffffffffffffffffffffff1681525050505050620002af33620002856200043160201b60201c565b600a620002939190620017a7565b62989680620002a39190620017f8565b6200043a60201b60201c565b5062001c5e565b6000600560009054906101000a900473ffffffffffffffffffffffffffffffffffffffff16905081600560006101000a81548173ffffffffffffffffffffffffffffffffffffffff021916908373ffffffffffffffffffffffffffffffffffffffff1602179055508173ffffffffffffffffffffffffffffffffffffffff168173ffffffffffffffffffffffffffffffffffffffff167f8be0079c531659141344cd1fd0a4f28419497f9722a3daafe3b4186f6b6457e060405160405180910390a35050565b6000602083511015620003a2576200039a83620004c760201b60201c565b9050620003ce565b82620003b4836200053460201b60201c565b6000019081620003c5919062001502565b5060ff60001b90505b92915050565b60007f8b73c3c69bb8fe3d512ecc4cf759cc79239f7b179b0ffacaa9a75d522b39400f60e051610100514630604051602001620004169594939291906200186f565b60405160208183030381529060405280519060200120905090565b60006012905090565b600073ffffffffffffffffffffffffffffffffffffffff168273ffffffffffffffffffffffffffffffffffffffff1603620004af5760006040517fec442f05000000000000000000000000000000000000000000000000000000008152600401620004a69190620015fa565b60405180910390fd5b620004c3600083836200053e60201b60201c565b5050565b600080829050601f815111156200051757826040517f305a27a90000000000000000000000000000000000000000000000000000000081526004016200050e91906200195b565b60405180910390fd5b8051816200052590620019b1565b60001c1760001b915050919050565b6000819050919050565b620005518383836200055660201b60201c565b505050565b620005698383836200062b60201b60201c565b600073ffffffffffffffffffffffffffffffffffffffff168373ffffffffffffffffffffffffffffffffffffffff160362000613576000620005b06200085b60201b60201c565b90506000620005c46200086560201b60201c565b905080821115620006105781816040517f1cb15d260000000000000000000000000000000000000000000000000000000081526004016200060792919062001a21565b60405180910390fd5b50505b620006268383836200088960201b60201c565b505050565b600073ffffffffffffffffffffffffffffffffffffffff168373ffffffffffffffffffffffffffffffffffffffff16036200068157806002600082825462000674919062001a4e565b9250508190555062000757565b60008060008573ffffffffffffffffffffffffffffffffffffffff1673ffffffffffffffffffffffffffffffffffffffff1681526020019081526020016000205490508181101562000710578381836040517fe450d38c000000000000000000000000000000000000000000000000000000008152600401620007079392919062001a89565b60405180910390fd5b8181036000808673ffffffffffffffffffffffffffffffffffffffff1673ffffffffffffffffffffffffffffffffffffffff16815260200190815260200160002081905550505b600073ffffffffffffffffffffffffffffffffffffffff168273ffffffffffffffffffffffffffffffffffffffff1603620007a25780600260008282540392505081905550620007ef565b806000808473ffffffffffffffffffffffffffffffffffffffff1673ffffffffffffffffffffffffffffffffffffffff168152602001908152602001600020600082825401925050819055505b8173ffffffffffffffffffffffffffffffffffffffff168373ffffffffffffffffffffffffffffffffffffffff167fddf252ad1be2c89b69c2b068fc378daa952ba7f163c4a11628f55a4df523b3ef836040516200084e919062001ac6565b60405180910390a3505050565b6000600254905090565b600079ffffffffffffffffffffffffffffffffffffffffffffffffffff8016905090565b600073ffffffffffffffffffffffffffffffffffffffff168373ffffffffffffffffffffffffffffffffffffffff1603620008f057620008ed600b6200098f60201b62000f2c17620008e184620009a760201b60201c565b62000a1860201b60201c565b50505b600073ffffffffffffffffffffffffffffffffffffffff168273ffffffffffffffffffffffffffffffffffffffff1603620009575762000954600b62000a6860201b62000f42176200094884620009a760201b60201c565b62000a1860201b60201c565b50505b6200098a6200096c8462000a8060201b60201c565b6200097d8462000a8060201b60201c565b8362000ae960201b60201c565b505050565b600081836200099f919062001b09565b905092915050565b600079ffffffffffffffffffffffffffffffffffffffffffffffffffff801682111562000a105760d0826040517f6dfcc65000000000000000000000000000000000000000000000000000000000815260040162000a0792919062001ba1565b60405180910390fd5b819050919050565b60008062000a5c62000a2f62000d9c60201b60201c565b62000a4b62000a448862000da460201b60201c565b868860201c565b8762000e1860201b9092919060201c565b91509150935093915050565b6000818362000a78919062001bce565b905092915050565b6000600960008373ffffffffffffffffffffffffffffffffffffffff1673ffffffffffffffffffffffffffffffffffffffff16815260200190815260200160002060009054906101000a900473ffffffffffffffffffffffffffffffffffffffff169050919050565b8173ffffffffffffffffffffffffffffffffffffffff168373ffffffffffffffffffffffffffffffffffffffff161415801562000b265750600081115b1562000d9757600073ffffffffffffffffffffffffffffffffffffffff168373ffffffffffffffffffffffffffffffffffffffff161462000c615760008062000bd0600a60008773ffffffffffffffffffffffffffffffffffffffff1673ffffffffffffffffffffffffffffffffffffffff16815260200190815260200160002062000a6860201b62000f421762000bc486620009a760201b60201c565b62000a1860201b60201c565b79ffffffffffffffffffffffffffffffffffffffffffffffffffff16915079ffffffffffffffffffffffffffffffffffffffffffffffffffff1691508473ffffffffffffffffffffffffffffffffffffffff167fdec2bacdd2f05b59de34da9b523dff8be42e5e38e818c82fdb0bae774387a724838360405162000c5692919062001a21565b60405180910390a250505b600073ffffffffffffffffffffffffffffffffffffffff168273ffffffffffffffffffffffffffffffffffffffff161462000d965760008062000d05600a60008673ffffffffffffffffffffffffffffffffffffffff1673ffffffffffffffffffffffffffffffffffffffff1681526020019081526020016000206200098f60201b62000f2c1762000cf986620009a760201b60201c565b62000a1860201b60201c565b79ffffffffffffffffffffffffffffffffffffffffffffffffffff16915079ffffffffffffffffffffffffffffffffffffffffffffffffffff1691508373ffffffffffffffffffffffffffffffffffffffff167fdec2bacdd2f05b59de34da9b523dff8be42e5e38e818c82fdb0bae774387a724838360405162000d8b92919062001a21565b60405180910390a250505b5b505050565b600042905090565b600080826000018054905090506000811462000e0d5762000ddd8360000160018362000dd1919062001c23565b62000e3d60201b60201c565b60000160069054906101000a900479ffffffffffffffffffffffffffffffffffffffffffffffffffff1662000e10565b60005b915050919050565b60008062000e3185600001858562000e5260201b60201c565b91509150935093915050565b60008260005281602060002001905092915050565b6000806000858054905090506000811115620010fc57600062000e8a8760018462000e7e919062001c23565b62000e3d60201b60201c565b6040518060400160405290816000820160009054906101000a900465ffffffffffff1665ffffffffffff1665ffffffffffff1681526020016000820160069054906101000a900479ffffffffffffffffffffffffffffffffffffffffffffffffffff1679ffffffffffffffffffffffffffffffffffffffffffffffffffff1679ffffffffffffffffffffffffffffffffffffffffffffffffffff168152505090508565ffffffffffff16816000015165ffffffffffff16111562000f7a576040517f2520601d00000000000000000000000000000000000000000000000000000000815260040160405180910390fd5b8565ffffffffffff16816000015165ffffffffffff16036200100a578462000fb78860018562000fab919062001c23565b62000e3d60201b60201c565b60000160066101000a81548179ffffffffffffffffffffffffffffffffffffffffffffffffffff021916908379ffffffffffffffffffffffffffffffffffffffffffffffffffff160217905550620010ea565b8660405180604001604052808865ffffffffffff1681526020018779ffffffffffffffffffffffffffffffffffffffffffffffffffff168152509080600181540180825580915050600190039060005260206000200160009091909190915060008201518160000160006101000a81548165ffffffffffff021916908365ffffffffffff16021790555060208201518160000160066101000a81548179ffffffffffffffffffffffffffffffffffffffffffffffffffff021916908379ffffffffffffffffffffffffffffffffffffffffffffffffffff16021790555050505b806020015185935093505050620011e4565b8560405180604001604052808765ffffffffffff1681526020018679ffffffffffffffffffffffffffffffffffffffffffffffffffff168152509080600181540180825580915050600190039060005260206000200160009091909190915060008201518160000160006101000a81548165ffffffffffff021916908365ffffffffffff16021790555060208201518160000160066101000a81548179ffffffffffffffffffffffffffffffffffffffffffffffffffff021916908379ffffffffffffffffffffffffffffffffffffffffffffffffffff160217905550505060008492509250505b935093915050565b600080fd5b600073ffffffffffffffffffffffffffffffffffffffff82169050919050565b60006200121e82620011f1565b9050919050565b620012308162001211565b81146200123c57600080fd5b50565b600081519050620012508162001225565b92915050565b6000602082840312156200126f576200126e620011ec565b5b60006200127f848285016200123f565b91505092915050565b600081519050919050565b7f4e487b7100000000000000000000000000000000000000000000000000000000600052604160045260246000fd5b7f4e487b7100000000000000000000000000000000000000000000000000000000600052602260045260246000fd5b600060028204905060018216806200130a57607f821691505b60208210810362001320576200131f620012c2565b5b50919050565b60008190508160005260206000209050919050565b60006020601f8301049050919050565b600082821b905092915050565b6000600883026200138a7fffffffffffffffffffffffffffffffffffffffffffffffffffffffffffffffff826200134b565b6200139686836200134b565b95508019841693508086168417925050509392505050565b6000819050919050565b6000819050919050565b6000620013e3620013dd620013d784620013ae565b620013b8565b620013ae565b9050919050565b6000819050919050565b620013ff83620013c2565b620014176200140e82620013ea565b84845462001358565b825550505050565b600090565b6200142e6200141f565b6200143b818484620013f4565b505050565b5b8181101562001463576200145760008262001424565b60018101905062001441565b5050565b601f821115620014b2576200147c8162001326565b62001487846200133b565b8101602085101562001497578190505b620014af620014a6856200133b565b83018262001440565b50505b505050565b600082821c905092915050565b6000620014d760001984600802620014b7565b1980831691505092915050565b6000620014f28383620014c4565b9150826002028217905092915050565b6200150d8262001288565b67ffffffffffffffff81111562001529576200152862001293565b5b620015358254620012f1565b6200154282828562001467565b600060209050601f8311600181146200157a576000841562001565578287015190505b620015718582620014e4565b865550620015e1565b601f1984166200158a8662001326565b60005b82811015620015b4578489015182556001820191506020850194506020810190506200158d565b86831015620015d45784890151620015d0601f891682620014c4565b8355505b6001600288020188555050505b505050505050565b620015f48162001211565b82525050565b6000602082019050620016116000830184620015e9565b92915050565b7f4e487b7100000000000000000000000000000000000000000000000000000000600052601160045260246000fd5b60008160011c9050919050565b6000808291508390505b6001851115620016a5578086048111156200167d576200167c62001617565b5b60018516156200168d5780820291505b80810290506200169d8562001646565b94506200165d565b94509492505050565b600082620016c0576001905062001793565b81620016d0576000905062001793565b8160018114620016e95760028114620016f4576200172a565b600191505062001793565b60ff84111562001709576200170862001617565b5b8360020a91508482111562001723576200172262001617565b5b5062001793565b5060208310610133831016604e8410600b8410161715620017645782820a9050838111156200175e576200175d62001617565b5b62001793565b62001773848484600162001653565b925090508184048111156200178d576200178c62001617565b5b81810290505b9392505050565b600060ff82169050919050565b6000620017b482620013ae565b9150620017c1836200179a565b9250620017f07fffffffffffffffffffffffffffffffffffffffffffffffffffffffffffffffff8484620016ae565b905092915050565b60006200180582620013ae565b91506200181283620013ae565b92508282026200182281620013ae565b915082820484148315176200183c576200183b62001617565b5b5092915050565b6000819050919050565b620018588162001843565b82525050565b6200186981620013ae565b82525050565b600060a0820190506200188660008301886200184d565b6200189560208301876200184d565b620018a460408301866200184d565b620018b360608301856200185e565b620018c26080830184620015e9565b9695505050505050565b600082825260208201905092915050565b60005b83811015620018fd578082015181840152602081019050620018e0565b60008484015250505050565b6000601f19601f8301169050919050565b6000620019278262001288565b620019338185620018cc565b935062001945818560208601620018dd565b620019508162001909565b840191505092915050565b600060208201905081810360008301526200197781846200191a565b905092915050565b600081519050919050565b6000819050602082019050919050565b6000620019a8825162001843565b80915050919050565b6000620019be826200197f565b82620019ca846200198a565b9050620019d7816200199a565b9250602082101562001a1a5762001a157fffffffffffffffffffffffffffffffffffffffffffffffffffffffffffffffff836020036008026200134b565b831692505b5050919050565b600060408201905062001a3860008301856200185e565b62001a4760208301846200185e565b9392505050565b600062001a5b82620013ae565b915062001a6883620013ae565b925082820190508082111562001a835762001a8262001617565b5b92915050565b600060608201905062001aa06000830186620015e9565b62001aaf60208301856200185e565b62001abe60408301846200185e565b949350505050565b600060208201905062001add60008301846200185e565b92915050565b600079ffffffffffffffffffffffffffffffffffffffffffffffffffff82169050919050565b600062001b168262001ae3565b915062001b238362001ae3565b9250828201905079ffffffffffffffffffffffffffffffffffffffffffffffffffff81111562001b585762001b5762001617565b5b92915050565b6000819050919050565b600062001b8962001b8362001b7d8462001b5e565b620013b8565b6200179a565b9050919050565b62001b9b8162001b68565b82525050565b600060408201905062001bb8600083018562001b90565b62001bc760208301846200185e565b9392505050565b600062001bdb8262001ae3565b915062001be88362001ae3565b9250828203905079ffffffffffffffffffffffffffffffffffffffffffffffffffff81111562001c1d5762001c1c62001617565b5b92915050565b600062001c3082620013ae565b915062001c3d83620013ae565b925082820390508181111562001c585762001c5762001617565b5b92915050565b60805160a05160c05160e051610100516101205161014051613c7362001cb96000396000611718015260006116dd01526000611b3901526000611b18015260006110fe015260006111540152600061117d0152613c736000f3fe608060405234801561001057600080fd5b50600436106101cf5760003560e01c8063715018a61161010457806395d89b41116100a2578063d505accf11610071578063d505accf1461055e578063dd62ed3e1461057a578063f1127ed8146105aa578063f2fde38b146105da576101cf565b806395d89b41146104c45780639ab24eb0146104e2578063a9059cbb14610512578063c3cda52014610542576101cf565b806384b0196e116100de57806384b0196e146104345780638da5cb5b146104585780638e539e8c1461047657806391ddadf4146104a6576101cf565b8063715018a6146103de57806379cc6790146103e85780637ecebe0014610404576101cf565b806340c10f1911610171578063587cde1e1161014b578063587cde1e146103325780635c19a95c146103625780636fcfff451461037e57806370a08231146103ae576101cf565b806340c10f19146102dc57806342966c68146102f85780634bf5d7e914610314576101cf565b806323b872dd116101ad57806323b872dd14610240578063313ce567146102705780633644e5151461028e5780633a46b1a8146102ac576101cf565b806306fdde03146101d4578063095ea7b3146101f257806318160ddd14610222575b600080fd5b6101dc6105f6565b6040516101e99190612f1d565b60405180910390f35b61020c60048036038101906102079190612fd8565b610688565b6040516102199190613033565b60405180910390f35b61022a6106ab565b604051610237919061305d565b60405180910390f35b61025a60048036038101906102559190613078565b6106b5565b6040516102679190613033565b60405180910390f35b6102786106e4565b60405161028591906130e7565b60405180910390f35b6102966106ed565b6040516102a3919061311b565b60405180910390f35b6102c660048036038101906102c19190612fd8565b6106fc565b6040516102d3919061305d565b60405180910390f35b6102f660048036038101906102f19190612fd8565b6107d5565b005b610312600480360381019061030d9190613136565b6107eb565b005b61031c6107ff565b6040516103299190612f1d565b60405180910390f35b61034c60048036038101906103479190613163565b61083c565b604051610359919061319f565b60405180910390f35b61037c60048036038101906103779190613163565b6108a5565b005b61039860048036038101906103939190613163565b6108bf565b6040516103a591906131d9565b60405180910390f35b6103c860048036038101906103c39190613163565b6108d1565b6040516103d5919061305d565b60405180910390f35b6103e6610919565b005b61040260048036038101906103fd9190612fd8565b61092d565b005b61041e60048036038101906104199190613163565b61094d565b60405161042b919061305d565b60405180910390f35b61043c61095f565b60405161044f97969594939291906132ed565b60405180910390f35b610460610a09565b60405161046d919061319f565b60405180910390f35b610490600480360381019061048b9190613136565b610a33565b60405161049d919061305d565b60405180910390f35b6104ae610ace565b6040516104bb9190613392565b60405180910390f35b6104cc610ad6565b6040516104d99190612f1d565b60405180910390f35b6104fc60048036038101906104f79190613163565b610b68565b604051610509919061305d565b60405180910390f35b61052c60048036038101906105279190612fd8565b610bd4565b6040516105399190613033565b60405180910390f35b61055c60048036038101906105579190613405565b610bf7565b005b61057860048036038101906105739190613492565b610cbd565b005b610594600480360381019061058f9190613534565b610e05565b6040516105a1919061305d565b60405180910390f35b6105c460048036038101906105bf91906135a0565b610e8c565b6040516105d19190613653565b60405180910390f35b6105f460048036038101906105ef9190613163565b610ea6565b005b6060600380546106059061369d565b80601f01602080910402602001604051908101604052809291908181526020018280546106319061369d565b801561067e5780601f106106535761010080835404028352916020019161067e565b820191906000526020600020905b81548152906001019060200180831161066157829003601f168201915b5050505050905090565b600080610693610f58565b90506106a0818585610f60565b600191505092915050565b6000600254905090565b6000806106c0610f58565b90506106cd858285610f72565b6106d8858585611006565b60019150509392505050565b60006012905090565b60006106f76110fa565b905090565b600080610707610ace565b90508065ffffffffffff1683106107575782816040517fecd3f81e00000000000000000000000000000000000000000000000000000000815260040161074e9291906136ce565b60405180910390fd5b6107b0610763846111b1565b600a60008773ffffffffffffffffffffffffffffffffffffffff1673ffffffffffffffffffffffffffffffffffffffff16815260200190815260200160002061120b90919063ffffffff16565b79ffffffffffffffffffffffffffffffffffffffffffffffffffff1691505092915050565b6107dd611305565b6107e7828261138c565b5050565b6107fc6107f6610f58565b8261140e565b50565b60606040518060400160405280600e81526020017f6d6f64653d74696d657374616d70000000000000000000000000000000000000815250905090565b6000600960008373ffffffffffffffffffffffffffffffffffffffff1673ffffffffffffffffffffffffffffffffffffffff16815260200190815260200160002060009054906101000a900473ffffffffffffffffffffffffffffffffffffffff169050919050565b60006108af610f58565b90506108bb8183611490565b5050565b60006108ca826115a4565b9050919050565b60008060008373ffffffffffffffffffffffffffffffffffffffff1673ffffffffffffffffffffffffffffffffffffffff168152602001908152602001600020549050919050565b610921611305565b61092b60006115fc565b565b61093f82610939610f58565b83610f72565b610949828261140e565b5050565b6000610958826116c2565b9050919050565b6000606080600080600060606109736116d4565b61097b61170f565b46306000801b600067ffffffffffffffff81111561099c5761099b6136f7565b5b6040519080825280602002602001820160405280156109ca5781602001602082028036833780820191505090505b507f0f00000000000000000000000000000000000000000000000000000000000000959493929190965096509650965096509650965090919293949596565b6000600560009054906101000a900473ffffffffffffffffffffffffffffffffffffffff16905090565b600080610a3e610ace565b90508065ffffffffffff168310610a8e5782816040517fecd3f81e000000000000000000000000000000000000000000000000000000008152600401610a859291906136ce565b60405180910390fd5b610aaa610a9a846111b1565b600b61120b90919063ffffffff16565b79ffffffffffffffffffffffffffffffffffffffffffffffffffff16915050919050565b600042905090565b606060048054610ae59061369d565b80601f0160208091040260200160405190810160405280929190818152602001828054610b119061369d565b8015610b5e5780601f10610b3357610100808354040283529160200191610b5e565b820191906000526020600020905b815481529060010190602001808311610b4157829003601f168201915b5050505050905090565b6000610bb1600a60008473ffffffffffffffffffffffffffffffffffffffff1673ffffffffffffffffffffffffffffffffffffffff16815260200190815260200160002061174a565b79ffffffffffffffffffffffffffffffffffffffffffffffffffff169050919050565b600080610bdf610f58565b9050610bec818585611006565b600191505092915050565b83421115610c3c57836040517f4683af0e000000000000000000000000000000000000000000000000000000008152600401610c33919061305d565b60405180910390fd5b6000610c9e610c967fe48329057bfd03d55e49b547132e39cffd9c1820ad7b9d4c5307691425d15adf898989604051602001610c7b9493929190613726565b604051602081830303815290604052805190602001206117b2565b8585856117cc565b9050610caa81876117fc565b610cb48188611490565b50505050505050565b83421115610d0257836040517f62791302000000000000000000000000000000000000000000000000000000008152600401610cf9919061305d565b60405180910390fd5b60007f6e71edae12b1b97f4d1f60370fef10105fa2faae0126114a169c64845d6126c9888888610d318c611854565b89604051602001610d479695949392919061376b565b6040516020818303038152906040528051906020012090506000610d6a826117b2565b90506000610d7a828787876117cc565b90508973ffffffffffffffffffffffffffffffffffffffff168173ffffffffffffffffffffffffffffffffffffffff1614610dee57808a6040517f4b800e46000000000000000000000000000000000000000000000000000000008152600401610de59291906137cc565b60405180910390fd5b610df98a8a8a610f60565b50505050505050505050565b6000600160008473ffffffffffffffffffffffffffffffffffffffff1673ffffffffffffffffffffffffffffffffffffffff16815260200190815260200160002060008373ffffffffffffffffffffffffffffffffffffffff1673ffffffffffffffffffffffffffffffffffffffff16815260200190815260200160002054905092915050565b610e94612e4f565b610e9e83836118ab565b905092915050565b610eae611305565b600073ffffffffffffffffffffffffffffffffffffffff168173ffffffffffffffffffffffffffffffffffffffff1603610f205760006040517f1e4fbdf7000000000000000000000000000000000000000000000000000000008152600401610f17919061319f565b60405180910390fd5b610f29816115fc565b50565b60008183610f3a9190613824565b905092915050565b60008183610f509190613872565b905092915050565b600033905090565b610f6d838383600161190c565b505050565b6000610f7e8484610e05565b90507fffffffffffffffffffffffffffffffffffffffffffffffffffffffffffffffff81146110005781811015610ff0578281836040517ffb8f41b2000000000000000000000000000000000000000000000000000000008152600401610fe7939291906138c0565b60405180910390fd5b610fff8484848403600061190c565b5b50505050565b600073ffffffffffffffffffffffffffffffffffffffff168373ffffffffffffffffffffffffffffffffffffffff16036110785760006040517f96c6fd1e00000000000000000000000000000000000000000000000000000000815260040161106f919061319f565b60405180910390fd5b600073ffffffffffffffffffffffffffffffffffffffff168273ffffffffffffffffffffffffffffffffffffffff16036110ea5760006040517fec442f050000000000000000000000000000000000000000000000000000000081526004016110e1919061319f565b60405180910390fd5b6110f5838383611ae3565b505050565b60007f000000000000000000000000000000000000000000000000000000000000000073ffffffffffffffffffffffffffffffffffffffff163073ffffffffffffffffffffffffffffffffffffffff1614801561117657507f000000000000000000000000000000000000000000000000000000000000000046145b156111a3577f000000000000000000000000000000000000000000000000000000000000000090506111ae565b6111ab611af3565b90505b90565b600065ffffffffffff8016821115611203576030826040517f6dfcc6500000000000000000000000000000000000000000000000000000000081526004016111fa92919061393c565b60405180910390fd5b819050919050565b60008083600001805490509050600080829050600583111561129357600061123284611b89565b8461123d9190613965565b905061124c8760000182611c82565b60000160009054906101000a900465ffffffffffff1665ffffffffffff168665ffffffffffff16101561128157809150611291565b60018161128e9190613999565b92505b505b60006112a487600001878585611c97565b9050600081146112f6576112c7876000016001836112c29190613965565b611c82565b60000160069054906101000a900479ffffffffffffffffffffffffffffffffffffffffffffffffffff166112f9565b60005b94505050505092915050565b61130d610f58565b73ffffffffffffffffffffffffffffffffffffffff1661132b610a09565b73ffffffffffffffffffffffffffffffffffffffff161461138a5761134e610f58565b6040517f118cdaa7000000000000000000000000000000000000000000000000000000008152600401611381919061319f565b60405180910390fd5b565b600073ffffffffffffffffffffffffffffffffffffffff168273ffffffffffffffffffffffffffffffffffffffff16036113fe5760006040517fec442f050000000000000000000000000000000000000000000000000000000081526004016113f5919061319f565b60405180910390fd5b61140a60008383611ae3565b5050565b600073ffffffffffffffffffffffffffffffffffffffff168273ffffffffffffffffffffffffffffffffffffffff16036114805760006040517f96c6fd1e000000000000000000000000000000000000000000000000000000008152600401611477919061319f565b60405180910390fd5b61148c82600083611ae3565b5050565b600061149b8361083c565b905081600960008573ffffffffffffffffffffffffffffffffffffffff1673ffffffffffffffffffffffffffffffffffffffff16815260200190815260200160002060006101000a81548173ffffffffffffffffffffffffffffffffffffffff021916908373ffffffffffffffffffffffffffffffffffffffff1602179055508173ffffffffffffffffffffffffffffffffffffffff168173ffffffffffffffffffffffffffffffffffffffff168473ffffffffffffffffffffffffffffffffffffffff167f3134e8a2e6d97e929a7e54011ea5485d7d196dd5f0ba4d4ef95803e8e3fc257f60405160405180910390a461159f818361159a86611d10565b611d22565b505050565b60006115f56115f0600a60008573ffffffffffffffffffffffffffffffffffffffff1673ffffffffffffffffffffffffffffffffffffffff168152602001908152602001600020611f9b565b611fac565b9050919050565b6000600560009054906101000a900473ffffffffffffffffffffffffffffffffffffffff16905081600560006101000a81548173ffffffffffffffffffffffffffffffffffffffff021916908373ffffffffffffffffffffffffffffffffffffffff1602179055508173ffffffffffffffffffffffffffffffffffffffff168173ffffffffffffffffffffffffffffffffffffffff167f8be0079c531659141344cd1fd0a4f28419497f9722a3daafe3b4186f6b6457e060405160405180910390a35050565b60006116cd82612004565b9050919050565b606061170a60067f000000000000000000000000000000000000000000000000000000000000000061204d90919063ffffffff16565b905090565b606061174560077f000000000000000000000000000000000000000000000000000000000000000061204d90919063ffffffff16565b905090565b60008082600001805490509050600081146117a757611778836000016001836117739190613965565b611c82565b60000160069054906101000a900479ffffffffffffffffffffffffffffffffffffffffffffffffffff166117aa565b60005b915050919050565b60006117c56117bf6110fa565b836120fd565b9050919050565b6000806000806117de8888888861213e565b9250925092506117ee8282612232565b829350505050949350505050565b600061180783611854565b905080821461184f5782816040517f752d88c00000000000000000000000000000000000000000000000000000000081526004016118469291906139cd565b60405180910390fd5b505050565b6000600860008373ffffffffffffffffffffffffffffffffffffffff1673ffffffffffffffffffffffffffffffffffffffff1681526020019081526020016000206000815480929190600101919050559050919050565b6118b3612e4f565b61190482600a60008673ffffffffffffffffffffffffffffffffffffffff1673ffffffffffffffffffffffffffffffffffffffff16815260200190815260200160002061239690919063ffffffff16565b905092915050565b600073ffffffffffffffffffffffffffffffffffffffff168473ffffffffffffffffffffffffffffffffffffffff160361197e5760006040517fe602df05000000000000000000000000000000000000000000000000000000008152600401611975919061319f565b60405180910390fd5b600073ffffffffffffffffffffffffffffffffffffffff168373ffffffffffffffffffffffffffffffffffffffff16036119f05760006040517f94280d620000000000000000000000000000000000000000000000000000000081526004016119e7919061319f565b60405180910390fd5b81600160008673ffffffffffffffffffffffffffffffffffffffff1673ffffffffffffffffffffffffffffffffffffffff16815260200190815260200160002060008573ffffffffffffffffffffffffffffffffffffffff1673ffffffffffffffffffffffffffffffffffffffff168152602001908152602001600020819055508015611add578273ffffffffffffffffffffffffffffffffffffffff168473ffffffffffffffffffffffffffffffffffffffff167f8c5be1e5ebec7d5bd14f71427d1e84f3dd0314c0f7b2291e5b200ac8c7c3b92584604051611ad4919061305d565b60405180910390a35b50505050565b611aee83838361246b565b505050565b60007f8b73c3c69bb8fe3d512ecc4cf759cc79239f7b179b0ffacaa9a75d522b39400f7f00000000000000000000000000000000000000000000000000000000000000007f00000000000000000000000000000000000000000000000000000000000000004630604051602001611b6e9594939291906139f6565b60405160208183030381529060405280519060200120905090565b6000808203611b9b5760009050611c7d565b60006001611ba88461251c565b901c6001901b90506001818481611bc257611bc1613a49565b5b048201901c90506001818481611bdb57611bda613a49565b5b048201901c90506001818481611bf457611bf3613a49565b5b048201901c90506001818481611c0d57611c0c613a49565b5b048201901c90506001818481611c2657611c25613a49565b5b048201901c90506001818481611c3f57611c3e613a49565b5b048201901c90506001818481611c5857611c57613a49565b5b048201901c9050611c7981828581611c7357611c72613a49565b5b046125fd565b9150505b919050565b60008260005281602060002001905092915050565b60005b81831015611d05576000611cae8484612616565b90508465ffffffffffff16611cc38783611c82565b60000160009054906101000a900465ffffffffffff1665ffffffffffff161115611cef57809250611cff565b600181611cfc9190613999565b93505b50611c9a565b819050949350505050565b6000611d1b826108d1565b9050919050565b8173ffffffffffffffffffffffffffffffffffffffff168373ffffffffffffffffffffffffffffffffffffffff1614158015611d5e5750600081115b15611f9657600073ffffffffffffffffffffffffffffffffffffffff168373ffffffffffffffffffffffffffffffffffffffff1614611e7c57600080611ded600a60008773ffffffffffffffffffffffffffffffffffffffff1673ffffffffffffffffffffffffffffffffffffffff168152602001908152602001600020610f42611de88661263c565b6126aa565b79ffffffffffffffffffffffffffffffffffffffffffffffffffff16915079ffffffffffffffffffffffffffffffffffffffffffffffffffff1691508473ffffffffffffffffffffffffffffffffffffffff167fdec2bacdd2f05b59de34da9b523dff8be42e5e38e818c82fdb0bae774387a7248383604051611e71929190613a78565b60405180910390a250505b600073ffffffffffffffffffffffffffffffffffffffff168273ffffffffffffffffffffffffffffffffffffffff1614611f9557600080611f06600a60008673ffffffffffffffffffffffffffffffffffffffff1673ffffffffffffffffffffffffffffffffffffffff168152602001908152602001600020610f2c611f018661263c565b6126aa565b79ffffffffffffffffffffffffffffffffffffffffffffffffffff16915079ffffffffffffffffffffffffffffffffffffffffffffffffffff1691508373ffffffffffffffffffffffffffffffffffffffff167fdec2bacdd2f05b59de34da9b523dff8be42e5e38e818c82fdb0bae774387a7248383604051611f8a929190613a78565b60405180910390a250505b5b505050565b600081600001805490509050919050565b600063ffffffff8016821115611ffc576020826040517f6dfcc650000000000000000000000000000000000000000000000000000000008152600401611ff3929190613adc565b60405180910390fd5b819050919050565b6000600860008373ffffffffffffffffffffffffffffffffffffffff1673ffffffffffffffffffffffffffffffffffffffff168152602001908152602001600020549050919050565b606060ff60001b831461206a57612063836126ea565b90506120f7565b8180546120769061369d565b80601f01602080910402602001604051908101604052809291908181526020018280546120a29061369d565b80156120ef5780601f106120c4576101008083540402835291602001916120ef565b820191906000526020600020905b8154815290600101906020018083116120d257829003601f168201915b505050505090505b92915050565b60006040517f190100000000000000000000000000000000000000000000000000000000000081528360028201528260228201526042812091505092915050565b60008060007f7fffffffffffffffffffffffffffffff5d576e7357a4501ddfe92f46681b20a08460001c111561217e576000600385925092509250612228565b6000600188888888604051600081526020016040526040516121a39493929190613b05565b6020604051602081039080840390855afa1580156121c5573d6000803e3d6000fd5b505050602060405103519050600073ffffffffffffffffffffffffffffffffffffffff168173ffffffffffffffffffffffffffffffffffffffff160361221957600060016000801b93509350935050612228565b8060008060001b935093509350505b9450945094915050565b6000600381111561224657612245613b4a565b5b82600381111561225957612258613b4a565b5b0315612392576001600381111561227357612272613b4a565b5b82600381111561228657612285613b4a565b5b036122bd576040517ff645eedf00000000000000000000000000000000000000000000000000000000815260040160405180910390fd5b600260038111156122d1576122d0613b4a565b5b8260038111156122e4576122e3613b4a565b5b03612329578060001c6040517ffce698f7000000000000000000000000000000000000000000000000000000008152600401612320919061305d565b60405180910390fd5b60038081111561233c5761233b613b4a565b5b82600381111561234f5761234e613b4a565b5b0361239157806040517fd78bce0c000000000000000000000000000000000000000000000000000000008152600401612388919061311b565b60405180910390fd5b5b5050565b61239e612e4f565b826000018263ffffffff16815481106123ba576123b9613b79565b5b906000526020600020016040518060400160405290816000820160009054906101000a900465ffffffffffff1665ffffffffffff1665ffffffffffff1681526020016000820160069054906101000a900479ffffffffffffffffffffffffffffffffffffffffffffffffffff1679ffffffffffffffffffffffffffffffffffffffffffffffffffff1679ffffffffffffffffffffffffffffffffffffffffffffffffffff1681525050905092915050565b61247683838361275e565b600073ffffffffffffffffffffffffffffffffffffffff168373ffffffffffffffffffffffffffffffffffffffff160361250c5760006124b46106ab565b905060006124c0612983565b9050808211156125095781816040517f1cb15d26000000000000000000000000000000000000000000000000000000008152600401612500929190613a78565b60405180910390fd5b50505b6125178383836129a7565b505050565b600080600090506000608084901c111561253e57608083901c92506080810190505b6000604084901c111561255957604083901c92506040810190505b6000602084901c111561257457602083901c92506020810190505b6000601084901c111561258f57601083901c92506010810190505b6000600884901c11156125aa57600883901c92506008810190505b6000600484901c11156125c557600483901c92506004810190505b6000600284901c11156125e057600283901c92506002810190505b6000600184901c11156125f4576001810190505b80915050919050565b600081831061260c578161260e565b825b905092915050565b600060028284186126279190613ba8565b8284166126349190613999565b905092915050565b600079ffffffffffffffffffffffffffffffffffffffffffffffffffff80168211156126a25760d0826040517f6dfcc650000000000000000000000000000000000000000000000000000000008152600401612699929190613c14565b60405180910390fd5b819050919050565b6000806126de6126b8610ace565b6126ce6126c48861174a565b868863ffffffff16565b87612a619092919063ffffffff16565b91509150935093915050565b606060006126f783612a7e565b90506000602067ffffffffffffffff811115612716576127156136f7565b5b6040519080825280601f01601f1916602001820160405280156127485781602001600182028036833780820191505090505b5090508181528360208201528092505050919050565b600073ffffffffffffffffffffffffffffffffffffffff168373ffffffffffffffffffffffffffffffffffffffff16036127b05780600260008282546127a49190613999565b92505081905550612883565b60008060008573ffffffffffffffffffffffffffffffffffffffff1673ffffffffffffffffffffffffffffffffffffffff1681526020019081526020016000205490508181101561283c578381836040517fe450d38c000000000000000000000000000000000000000000000000000000008152600401612833939291906138c0565b60405180910390fd5b8181036000808673ffffffffffffffffffffffffffffffffffffffff1673ffffffffffffffffffffffffffffffffffffffff16815260200190815260200160002081905550505b600073ffffffffffffffffffffffffffffffffffffffff168273ffffffffffffffffffffffffffffffffffffffff16036128cc5780600260008282540392505081905550612919565b806000808473ffffffffffffffffffffffffffffffffffffffff1673ffffffffffffffffffffffffffffffffffffffff168152602001908152602001600020600082825401925050819055505b8173ffffffffffffffffffffffffffffffffffffffff168373ffffffffffffffffffffffffffffffffffffffff167fddf252ad1be2c89b69c2b068fc378daa952ba7f163c4a11628f55a4df523b3ef83604051612976919061305d565b60405180910390a3505050565b600079ffffffffffffffffffffffffffffffffffffffffffffffffffff8016905090565b600073ffffffffffffffffffffffffffffffffffffffff168373ffffffffffffffffffffffffffffffffffffffff16036129f4576129f1600b610f2c6129ec8461263c565b6126aa565b50505b600073ffffffffffffffffffffffffffffffffffffffff168273ffffffffffffffffffffffffffffffffffffffff1603612a4157612a3e600b610f42612a398461263c565b6126aa565b50505b612a5c612a4d8461083c565b612a568461083c565b83611d22565b505050565b600080612a72856000018585612ace565b91509150935093915050565b60008060ff8360001c169050601f811115612ac5576040517fb3512b0c00000000000000000000000000000000000000000000000000000000815260040160405180910390fd5b80915050919050565b6000806000858054905090506000811115612d5f576000612afb87600184612af69190613965565b611c82565b6040518060400160405290816000820160009054906101000a900465ffffffffffff1665ffffffffffff1665ffffffffffff1681526020016000820160069054906101000a900479ffffffffffffffffffffffffffffffffffffffffffffffffffff1679ffffffffffffffffffffffffffffffffffffffffffffffffffff1679ffffffffffffffffffffffffffffffffffffffffffffffffffff168152505090508565ffffffffffff16816000015165ffffffffffff161115612bea576040517f2520601d00000000000000000000000000000000000000000000000000000000815260040160405180910390fd5b8565ffffffffffff16816000015165ffffffffffff1603612c6e5784612c1c88600185612c179190613965565b611c82565b60000160066101000a81548179ffffffffffffffffffffffffffffffffffffffffffffffffffff021916908379ffffffffffffffffffffffffffffffffffffffffffffffffffff160217905550612d4e565b8660405180604001604052808865ffffffffffff1681526020018779ffffffffffffffffffffffffffffffffffffffffffffffffffff168152509080600181540180825580915050600190039060005260206000200160009091909190915060008201518160000160006101000a81548165ffffffffffff021916908365ffffffffffff16021790555060208201518160000160066101000a81548179ffffffffffffffffffffffffffffffffffffffffffffffffffff021916908379ffffffffffffffffffffffffffffffffffffffffffffffffffff16021790555050505b806020015185935093505050612e47565b8560405180604001604052808765ffffffffffff1681526020018679ffffffffffffffffffffffffffffffffffffffffffffffffffff168152509080600181540180825580915050600190039060005260206000200160009091909190915060008201518160000160006101000a81548165ffffffffffff021916908365ffffffffffff16021790555060208201518160000160066101000a81548179ffffffffffffffffffffffffffffffffffffffffffffffffffff021916908379ffffffffffffffffffffffffffffffffffffffffffffffffffff160217905550505060008492509250505b935093915050565b6040518060400160405280600065ffffffffffff168152602001600079ffffffffffffffffffffffffffffffffffffffffffffffffffff1681525090565b600081519050919050565b600082825260208201905092915050565b60005b83811015612ec7578082015181840152602081019050612eac565b60008484015250505050565b6000601f19601f8301169050919050565b6000612eef82612e8d565b612ef98185612e98565b9350612f09818560208601612ea9565b612f1281612ed3565b840191505092915050565b60006020820190508181036000830152612f378184612ee4565b905092915050565b600080fd5b600073ffffffffffffffffffffffffffffffffffffffff82169050919050565b6000612f6f82612f44565b9050919050565b612f7f81612f64565b8114612f8a57600080fd5b50565b600081359050612f9c81612f76565b92915050565b6000819050919050565b612fb581612fa2565b8114612fc057600080fd5b50565b600081359050612fd281612fac565b92915050565b60008060408385031215612fef57612fee612f3f565b5b6000612ffd85828601612f8d565b925050602061300e85828601612fc3565b9150509250929050565b60008115159050919050565b61302d81613018565b82525050565b60006020820190506130486000830184613024565b92915050565b61305781612fa2565b82525050565b6000602082019050613072600083018461304e565b92915050565b60008060006060848603121561309157613090612f3f565b5b600061309f86828701612f8d565b93505060206130b086828701612f8d565b92505060406130c186828701612fc3565b9150509250925092565b600060ff82169050919050565b6130e1816130cb565b82525050565b60006020820190506130fc60008301846130d8565b92915050565b6000819050919050565b61311581613102565b82525050565b6000602082019050613130600083018461310c565b92915050565b60006020828403121561314c5761314b612f3f565b5b600061315a84828501612fc3565b91505092915050565b60006020828403121561317957613178612f3f565b5b600061318784828501612f8d565b91505092915050565b61319981612f64565b82525050565b60006020820190506131b46000830184613190565b92915050565b600063ffffffff82169050919050565b6131d3816131ba565b82525050565b60006020820190506131ee60008301846131ca565b92915050565b60007fff0000000000000000000000000000000000000000000000000000000000000082169050919050565b613229816131f4565b82525050565b600081519050919050565b600082825260208201905092915050565b6000819050602082019050919050565b61326481612fa2565b82525050565b6000613276838361325b565b60208301905092915050565b6000602082019050919050565b600061329a8261322f565b6132a4818561323a565b93506132af8361324b565b8060005b838110156132e05781516132c7888261326a565b97506132d283613282565b9250506001810190506132b3565b5085935050505092915050565b600060e082019050613302600083018a613220565b81810360208301526133148189612ee4565b905081810360408301526133288188612ee4565b9050613337606083018761304e565b6133446080830186613190565b61335160a083018561310c565b81810360c0830152613363818461328f565b905098975050505050505050565b600065ffffffffffff82169050919050565b61338c81613371565b82525050565b60006020820190506133a76000830184613383565b92915050565b6133b6816130cb565b81146133c157600080fd5b50565b6000813590506133d3816133ad565b92915050565b6133e281613102565b81146133ed57600080fd5b50565b6000813590506133ff816133d9565b92915050565b60008060008060008060c0878903121561342257613421612f3f565b5b600061343089828a01612f8d565b965050602061344189828a01612fc3565b955050604061345289828a01612fc3565b945050606061346389828a016133c4565b935050608061347489828a016133f0565b92505060a061348589828a016133f0565b9150509295509295509295565b600080600080600080600060e0888a0312156134b1576134b0612f3f565b5b60006134bf8a828b01612f8d565b97505060206134d08a828b01612f8d565b96505060406134e18a828b01612fc3565b95505060606134f28a828b01612fc3565b94505060806135038a828b016133c4565b93505060a06135148a828b016133f0565b92505060c06135258a828b016133f0565b91505092959891949750929550565b6000806040838503121561354b5761354a612f3f565b5b600061355985828601612f8d565b925050602061356a85828601612f8d565b9150509250929050565b61357d816131ba565b811461358857600080fd5b50565b60008135905061359a81613574565b92915050565b600080604083850312156135b7576135b6612f3f565b5b60006135c585828601612f8d565b92505060206135d68582860161358b565b9150509250929050565b6135e981613371565b82525050565b600079ffffffffffffffffffffffffffffffffffffffffffffffffffff82169050919050565b61361e816135ef565b82525050565b60408201600082015161363a60008501826135e0565b50602082015161364d6020850182613615565b50505050565b60006040820190506136686000830184613624565b92915050565b7f4e487b7100000000000000000000000000000000000000000000000000000000600052602260045260246000fd5b600060028204905060018216806136b557607f821691505b6020821081036136c8576136c761366e565b5b50919050565b60006040820190506136e3600083018561304e565b6136f06020830184613383565b9392505050565b7f4e487b7100000000000000000000000000000000000000000000000000000000600052604160045260246000fd5b600060808201905061373b600083018761310c565b6137486020830186613190565b613755604083018561304e565b613762606083018461304e565b95945050505050565b600060c082019050613780600083018961310c565b61378d6020830188613190565b61379a6040830187613190565b6137a7606083018661304e565b6137b4608083018561304e565b6137c160a083018461304e565b979650505050505050565b60006040820190506137e16000830185613190565b6137ee6020830184613190565b9392505050565b7f4e487b7100000000000000000000000000000000000000000000000000000000600052601160045260246000fd5b600061382f826135ef565b915061383a836135ef565b9250828201905079ffffffffffffffffffffffffffffffffffffffffffffffffffff81111561386c5761386b6137f5565b5b92915050565b600061387d826135ef565b9150613888836135ef565b9250828203905079ffffffffffffffffffffffffffffffffffffffffffffffffffff8111156138ba576138b96137f5565b5b92915050565b60006060820190506138d56000830186613190565b6138e2602083018561304e565b6138ef604083018461304e565b949350505050565b6000819050919050565b6000819050919050565b600061392661392161391c846138f7565b613901565b6130cb565b9050919050565b6139368161390b565b82525050565b6000604082019050613951600083018561392d565b61395e602083018461304e565b9392505050565b600061397082612fa2565b915061397b83612fa2565b9250828203905081811115613993576139926137f5565b5b92915050565b60006139a482612fa2565b91506139af83612fa2565b92508282019050808211156139c7576139c66137f5565b5b92915050565b60006040820190506139e26000830185613190565b6139ef602083018461304e565b9392505050565b600060a082019050613a0b600083018861310c565b613a18602083018761310c565b613a25604083018661310c565b613a32606083018561304e565b613a3f6080830184613190565b9695505050505050565b7f4e487b7100000000000000000000000000000000000000000000000000000000600052601260045260246000fd5b6000604082019050613a8d600083018561304e565b613a9a602083018461304e565b9392505050565b6000819050919050565b6000613ac6613ac1613abc84613aa1565b613901565b6130cb565b9050919050565b613ad681613aab565b82525050565b6000604082019050613af16000830185613acd565b613afe602083018461304e565b9392505050565b6000608082019050613b1a600083018761310c565b613b2760208301866130d8565b613b34604083018561310c565b613b41606083018461310c565b95945050505050565b7f4e487b7100000000000000000000000000000000000000000000000000000000600052602160045260246000fd5b7f4e487b7100000000000000000000000000000000000000000000000000000000600052603260045260246000fd5b6000613bb382612fa2565b9150613bbe83612fa2565b925082613bce57613bcd613a49565b5b828204905092915050565b6000819050919050565b6000613bfe613bf9613bf484613bd9565b613901565b6130cb565b9050919050565b613c0e81613be3565b82525050565b6000604082019050613c296000830185613c05565b613c36602083018461304e565b939250505056fea264697066735822122079026863f2b91960328183d0208385ff1b238a7b7728c21f4c82a7e4317b1a5864736f6c63430008180033",
  "linkReferences": {},
  "deployedLinkReferences": {}
}