{
  "_format": "hh-sol-artifact-1",
  "contractName": "HouseholdCommitteeDAO",
  "sourceName": "contracts/HouseholdCommitteeDAO.sol",
  "abi": [
    {
      "inputs": [
        {
          "internalType": "address",
          "name": "initialOwner",
          "type": "address"
        }
      ],
      "stateMutability": "nonpayable",
      "type": "constructor"
    },
    {
      "inputs": [
        {
          "internalType": "address",
          "name": "owner",
          "type": "address"
        }
      ],
      "name": "OwnableInvalidOwner",
      "type": "error"
    },
    {
      "inputs": [
        {
          "internalType": "address",
          "name": "account",
          "type": "address"
        }
      ],
      "name": "OwnableUnauthorizedAccount",
      "type": "error"
    },
    {
      "anonymous": false,
      "inputs": [
        {
          "indexed": true,
          "internalType": "address",
          "name": "previousOwner",
          "type": "address"
        },
        {
          "indexed": true,
          "internalType": "address",
          "name": "newOwner",
          "type": "address"
        }
      ],
      "name": "OwnershipTransferred",
      "type": "event"
    },
    {
      "anonymous": false,
      "inputs": [
        {
          "indexed": false,
          "internalType": "uint256",
          "name": "proposalId",
          "type": "uint256"
        },
        {
          "indexed": false,
          "internalType": "string",
          "name": "description",
          "type": "string"
        }
      ],
      "name": "ProposalCreated",
      "type": "event"
    },
    {
      "anonymous": false,
      "inputs": [
        {
          "indexed": false,
          "internalType": "uint256",
          "name": "proposalId",
          "type": "uint256"
        }
      ],
      "name": "ProposalExecuted",
      "type": "event"
    },
    {
      "anonymous": false,
      "inputs": [
        {
          "indexed": false,
          "internalType": "uint256",
          "name": "newValue",
          "type": "uint256"
        }
      ],
      "name": "ValueChanged",
      "type": "event"
    },
    {
      "anonymous": false,
      "inputs": [
        {
          "indexed": false,
          "internalType": "address",
          "name": "voter",
          "type": "address"
        },
        {
          "indexed": false,
          "internalType": "uint256",
          "name": "proposalId",
          "type": "uint256"
        }
      ],
      "name": "VoteCast",
      "type": "event"
    },
    {
      "inputs": [
        {
          "internalType": "address",
          "name": "member",
          "type": "address"
        }
      ],
      "name": "addMember",
      "outputs": [],
      "stateMutability": "nonpayable",
      "type": "function"
    },
    {
      "inputs": [
        {
          "internalType": "string",
          "name": "description",
          "type": "string"
        }
      ],
      "name": "createProposal",
      "outputs": [],
      "stateMutability": "nonpayable",
      "type": "function"
    },
    {
      "inputs": [
        {
          "internalType": "uint256",
          "name": "proposalId",
          "type": "uint256"
        }
      ],
      "name": "executeProposal",
      "outputs": [],
      "stateMutability": "nonpayable",
      "type": "function"
    },
    {
      "inputs": [],
      "name": "memberCount",
      "outputs": [
        {
          "internalType": "uint256",
          "name": "",
          "type": "uint256"
        }
      ],
      "stateMutability": "view",
      "type": "function"
    },
    {
      "inputs": [
        {
          "internalType": "address",
          "name": "",
          "type": "address"
        }
      ],
      "name": "members",
      "outputs": [
        {
          "internalType": "bool",
          "name": "",
          "type": "bool"
        }
      ],
      "stateMutability": "view",
      "type": "function"
    },
    {
      "inputs": [],
      "name": "owner",
      "outputs": [
        {
          "internalType": "address",
          "name": "",
          "type": "address"
        }
      ],
      "stateMutability": "view",
      "type": "function"
    },
    {
      "inputs": [],
      "name": "proposalCount",
      "outputs": [
        {
          "internalType": "uint256",
          "name": "",
          "type": "uint256"
        }
      ],
      "stateMutability": "view",
      "type": "function"
    },
    {
      "inputs": [
        {
          "internalType": "uint256",
          "name": "",
          "type": "uint256"
        }
      ],
      "name": "proposals",
      "outputs": [
        {
          "internalType": "uint256",
          "name": "id",
          "type": "uint256"
        },
        {
          "internalType": "string",
          "name": "description",
          "type": "string"
        },
        {
          "internalType": "uint256",
          "name": "voteCount",
          "type": "uint256"
        },
        {
          "internalType": "bool",
          "name": "executed",
          "type": "bool"
        }
      ],
      "stateMutability": "view",
      "type": "function"
    },
    {
      "inputs": [
        {
          "internalType": "address",
          "name": "member",
          "type": "address"
        }
      ],
      "name": "removeMember",
      "outputs": [],
      "stateMutability": "nonpayable",
      "type": "function"
    },
    {
      "inputs": [],
      "name": "renounceOwnership",
      "outputs": [],
      "stateMutability": "nonpayable",
      "type": "function"
    },
    {
      "inputs": [
        {
          "internalType": "address",
          "name": "newOwner",
          "type": "address"
        }
      ],
      "name": "transferOwnership",
      "outputs": [],
      "stateMutability": "nonpayable",
      "type": "function"
    },
    {
      "inputs": [
        {
          "internalType": "uint256",
          "name": "proposalId",
          "type": "uint256"
        }
      ],
      "name": "vote",
      "outputs": [],
      "stateMutability": "nonpayable",
      "type": "function"
    }
  ],
  "bytecode": "0x60806040523480156200001157600080fd5b506040516200186a3803806200186a833981810160405281019062000037919062000254565b80600073ffffffffffffffffffffffffffffffffffffffff168173ffffffffffffffffffffffffffffffffffffffff1603620000ad5760006040517f1e4fbdf7000000000000000000000000000000000000000000000000000000008152600401620000a4919062000297565b60405180910390fd5b620000be816200012660201b60201c565b506001600460008373ffffffffffffffffffffffffffffffffffffffff1673ffffffffffffffffffffffffffffffffffffffff16815260200190815260200160002060006101000a81548160ff021916908315150217905550600160058190555050620002b4565b60008060009054906101000a900473ffffffffffffffffffffffffffffffffffffffff169050816000806101000a81548173ffffffffffffffffffffffffffffffffffffffff021916908373ffffffffffffffffffffffffffffffffffffffff1602179055508173ffffffffffffffffffffffffffffffffffffffff168173ffffffffffffffffffffffffffffffffffffffff167f8be0079c531659141344cd1fd0a4f28419497f9722a3daafe3b4186f6b6457e060405160405180910390a35050565b600080fd5b600073ffffffffffffffffffffffffffffffffffffffff82169050919050565b60006200021c82620001ef565b9050919050565b6200022e816200020f565b81146200023a57600080fd5b50565b6000815190506200024e8162000223565b92915050565b6000602082840312156200026d576200026c620001ea565b5b60006200027d848285016200023d565b91505092915050565b62000291816200020f565b82525050565b6000602082019050620002ae600083018462000286565b92915050565b6115a680620002c46000396000f3fe608060405234801561001057600080fd5b50600436106100b45760003560e01c806349c2a1a61161007157806349c2a1a61461018e578063715018a6146101aa5780638da5cb5b146101b4578063ca6d56dc146101d2578063da35c664146101ee578063f2fde38b1461020c576100b4565b80630121b93f146100b9578063013cf08b146100d557806308ae4b0c146101085780630b1ca49a146101385780630d61b5191461015457806311aee38014610170575b600080fd5b6100d360048036038101906100ce9190610b88565b610228565b005b6100ef60048036038101906100ea9190610b88565b610374565b6040516100ff9493929190610c6f565b60405180910390f35b610122600480360381019061011d9190610d19565b610439565b60405161012f9190610d46565b60405180910390f35b610152600480360381019061014d9190610d19565b610459565b005b61016e60048036038101906101699190610b88565b610560565b005b61017861072d565b6040516101859190610d61565b60405180910390f35b6101a860048036038101906101a39190610eb1565b610733565b005b6101b261081a565b005b6101bc61082e565b6040516101c99190610f09565b60405180910390f35b6101ec60048036038101906101e79190610d19565b610857565b005b6101f661095f565b6040516102039190610d61565b60405180910390f35b61022660048036038101906102219190610d19565b610965565b005b600460003373ffffffffffffffffffffffffffffffffffffffff1673ffffffffffffffffffffffffffffffffffffffff16815260200190815260200160002060009054906101000a900460ff166102b4576040517f08c379a00000000000000000000000000000000000000000000000000000000081526004016102ab90610f70565b60405180910390fd5b60006002600083815260200190815260200160002090508060030160009054906101000a900460ff161561031d576040517f08c379a000000000000000000000000000000000000000000000000000000000815260040161031490610fdc565b60405180910390fd5b8060020160008154809291906103329061102b565b91905055507fa36cc2bebb74db33e9f88110a07ef56e1b31b24b4c4f51b54b1664266e29f45b3383604051610368929190611073565b60405180910390a15050565b600260205280600052604060002060009150905080600001549080600101805461039d906110cb565b80601f01602080910402602001604051908101604052809291908181526020018280546103c9906110cb565b80156104165780601f106103eb57610100808354040283529160200191610416565b820191906000526020600020905b8154815290600101906020018083116103f957829003601f168201915b5050505050908060020154908060030160009054906101000a900460ff16905084565b60046020528060005260406000206000915054906101000a900460ff1681565b6104616109eb565b600460008273ffffffffffffffffffffffffffffffffffffffff1673ffffffffffffffffffffffffffffffffffffffff16815260200190815260200160002060009054906101000a900460ff166104ed576040517f08c379a00000000000000000000000000000000000000000000000000000000081526004016104e490610f70565b60405180910390fd5b6000600460008373ffffffffffffffffffffffffffffffffffffffff1673ffffffffffffffffffffffffffffffffffffffff16815260200190815260200160002060006101000a81548160ff02191690831515021790555060056000815480929190610558906110fc565b919050555050565b600460003373ffffffffffffffffffffffffffffffffffffffff1673ffffffffffffffffffffffffffffffffffffffff16815260200190815260200160002060009054906101000a900460ff166105ec576040517f08c379a00000000000000000000000000000000000000000000000000000000081526004016105e390610f70565b60405180910390fd5b60006002600083815260200190815260200160002090508060030160009054906101000a900460ff1615610655576040517f08c379a000000000000000000000000000000000000000000000000000000000815260040161064c90610fdc565b60405180910390fd5b600060026005546106669190611154565b9050600060026005546106799190611185565b1461068e5760018161068b91906111b6565b90505b808260020154116106d4576040517f08c379a00000000000000000000000000000000000000000000000000000000081526004016106cb90611236565b60405180910390fd5b60018260030160006101000a81548160ff0219169083151502179055507f712ae1383f79ac853f8d882153778e0260ef8f03b504e2866e0593e04d2b291f836040516107209190610d61565b60405180910390a1505050565b60055481565b61073b6109eb565b6003600081548092919061074e9061102b565b91905055506040518060800160405280600354815260200182815260200160008152602001600015158152506002600060035481526020019081526020016000206000820151816000015560208201518160010190816107ae9190611402565b506040820151816002015560608201518160030160006101000a81548160ff0219169083151502179055509050507f9c770c289ab5bf7e57cb1d23c8ceae993aea46eb64847072fd3d78ca60d3e4326003548260405161080f9291906114d4565b60405180910390a150565b6108226109eb565b61082c6000610a72565b565b60008060009054906101000a900473ffffffffffffffffffffffffffffffffffffffff16905090565b61085f6109eb565b600460008273ffffffffffffffffffffffffffffffffffffffff1673ffffffffffffffffffffffffffffffffffffffff16815260200190815260200160002060009054906101000a900460ff16156108ec576040517f08c379a00000000000000000000000000000000000000000000000000000000081526004016108e390611550565b60405180910390fd5b6001600460008373ffffffffffffffffffffffffffffffffffffffff1673ffffffffffffffffffffffffffffffffffffffff16815260200190815260200160002060006101000a81548160ff021916908315150217905550600560008154809291906109579061102b565b919050555050565b60035481565b61096d6109eb565b600073ffffffffffffffffffffffffffffffffffffffff168173ffffffffffffffffffffffffffffffffffffffff16036109df5760006040517f1e4fbdf70000000000000000000000000000000000000000000000000000000081526004016109d69190610f09565b60405180910390fd5b6109e881610a72565b50565b6109f3610b36565b73ffffffffffffffffffffffffffffffffffffffff16610a1161082e565b73ffffffffffffffffffffffffffffffffffffffff1614610a7057610a34610b36565b6040517f118cdaa7000000000000000000000000000000000000000000000000000000008152600401610a679190610f09565b60405180910390fd5b565b60008060009054906101000a900473ffffffffffffffffffffffffffffffffffffffff169050816000806101000a81548173ffffffffffffffffffffffffffffffffffffffff021916908373ffffffffffffffffffffffffffffffffffffffff1602179055508173ffffffffffffffffffffffffffffffffffffffff168173ffffffffffffffffffffffffffffffffffffffff167f8be0079c531659141344cd1fd0a4f28419497f9722a3daafe3b4186f6b6457e060405160405180910390a35050565b600033905090565b6000604051905090565b600080fd5b600080fd5b6000819050919050565b610b6581610b52565b8114610b7057600080fd5b50565b600081359050610b8281610b5c565b92915050565b600060208284031215610b9e57610b9d610b48565b5b6000610bac84828501610b73565b91505092915050565b610bbe81610b52565b82525050565b600081519050919050565b600082825260208201905092915050565b60005b83811015610bfe578082015181840152602081019050610be3565b60008484015250505050565b6000601f19601f8301169050919050565b6000610c2682610bc4565b610c308185610bcf565b9350610c40818560208601610be0565b610c4981610c0a565b840191505092915050565b60008115159050919050565b610c6981610c54565b82525050565b6000608082019050610c846000830187610bb5565b8181036020830152610c968186610c1b565b9050610ca56040830185610bb5565b610cb26060830184610c60565b95945050505050565b600073ffffffffffffffffffffffffffffffffffffffff82169050919050565b6000610ce682610cbb565b9050919050565b610cf681610cdb565b8114610d0157600080fd5b50565b600081359050610d1381610ced565b92915050565b600060208284031215610d2f57610d2e610b48565b5b6000610d3d84828501610d04565b91505092915050565b6000602082019050610d5b6000830184610c60565b92915050565b6000602082019050610d766000830184610bb5565b92915050565b600080fd5b600080fd5b7f4e487b7100000000000000000000000000000000000000000000000000000000600052604160045260246000fd5b610dbe82610c0a565b810181811067ffffffffffffffff82111715610ddd57610ddc610d86565b5b80604052505050565b6000610df0610b3e565b9050610dfc8282610db5565b919050565b600067ffffffffffffffff821115610e1c57610e1b610d86565b5b610e2582610c0a565b9050602081019050919050565b82818337600083830152505050565b6000610e54610e4f84610e01565b610de6565b905082815260208101848484011115610e7057610e6f610d81565b5b610e7b848285610e32565b509392505050565b600082601f830112610e9857610e97610d7c565b5b8135610ea8848260208601610e41565b91505092915050565b600060208284031215610ec757610ec6610b48565b5b600082013567ffffffffffffffff811115610ee557610ee4610b4d565b5b610ef184828501610e83565b91505092915050565b610f0381610cdb565b82525050565b6000602082019050610f1e6000830184610efa565b92915050565b7f4e6f742061206d656d6265720000000000000000000000000000000000000000600082015250565b6000610f5a600c83610bcf565b9150610f6582610f24565b602082019050919050565b60006020820190508181036000830152610f8981610f4d565b9050919050565b7f50726f706f73616c20616c726561647920657865637574656400000000000000600082015250565b6000610fc6601983610bcf565b9150610fd182610f90565b602082019050919050565b60006020820190508181036000830152610ff581610fb9565b9050919050565b7f4e487b7100000000000000000000000000000000000000000000000000000000600052601160045260246000fd5b600061103682610b52565b91507fffffffffffffffffffffffffffffffffffffffffffffffffffffffffffffffff820361106857611067610ffc565b5b600182019050919050565b60006040820190506110886000830185610efa565b6110956020830184610bb5565b9392505050565b7f4e487b7100000000000000000000000000000000000000000000000000000000600052602260045260246000fd5b600060028204905060018216806110e357607f821691505b6020821081036110f6576110f561109c565b5b50919050565b600061110782610b52565b91506000820361111a57611119610ffc565b5b600182039050919050565b7f4e487b7100000000000000000000000000000000000000000000000000000000600052601260045260246000fd5b600061115f82610b52565b915061116a83610b52565b92508261117a57611179611125565b5b828204905092915050565b600061119082610b52565b915061119b83610b52565b9250826111ab576111aa611125565b5b828206905092915050565b60006111c182610b52565b91506111cc83610b52565b92508282019050808211156111e4576111e3610ffc565b5b92915050565b7f4e6f7420656e6f75676820766f74657300000000000000000000000000000000600082015250565b6000611220601083610bcf565b915061122b826111ea565b602082019050919050565b6000602082019050818103600083015261124f81611213565b9050919050565b60008190508160005260206000209050919050565b60006020601f8301049050919050565b600082821b905092915050565b6000600883026112b87fffffffffffffffffffffffffffffffffffffffffffffffffffffffffffffffff8261127b565b6112c2868361127b565b95508019841693508086168417925050509392505050565b6000819050919050565b60006112ff6112fa6112f584610b52565b6112da565b610b52565b9050919050565b6000819050919050565b611319836112e4565b61132d61132582611306565b848454611288565b825550505050565b600090565b611342611335565b61134d818484611310565b505050565b5b818110156113715761136660008261133a565b600181019050611353565b5050565b601f8211156113b65761138781611256565b6113908461126b565b8101602085101561139f578190505b6113b36113ab8561126b565b830182611352565b50505b505050565b600082821c905092915050565b60006113d9600019846008026113bb565b1980831691505092915050565b60006113f283836113c8565b9150826002028217905092915050565b61140b82610bc4565b67ffffffffffffffff81111561142457611423610d86565b5b61142e82546110cb565b611439828285611375565b600060209050601f83116001811461146c576000841561145a578287015190505b61146485826113e6565b8655506114cc565b601f19841661147a86611256565b60005b828110156114a25784890151825560018201915060208501945060208101905061147d565b868310156114bf57848901516114bb601f8916826113c8565b8355505b6001600288020188555050505b505050505050565b60006040820190506114e96000830185610bb5565b81810360208301526114fb8184610c1b565b90509392505050565b7f416c72656164792061206d656d62657200000000000000000000000000000000600082015250565b600061153a601083610bcf565b915061154582611504565b602082019050919050565b600060208201905081810360008301526115698161152d565b905091905056fea26469706673582212201e0f31d4cc279eb335ac61d7d0cdc57b247b7b72aff2663cfa8595c54a298ee864736f6c63430008180033",
  "linkReferences": {},
  "deployedLinkReferences": {}
}